:1000000022C00FC30EC3BBC00CC30BC30AC309C3BA
:1000100008C307C337C205C304C303C302C301C374
:1000200000C3FFC2FEC28AC1FCC2FBC2FAC2F9C24F
:10003000F8C2F7C23F003F15803F153F1600062467
:100040003F163F1A800011241FBECFEFCDBFDFE364
:10005000DEBFE4E3F0E040E017C0B591A591359133
:100060002591059107FD0CC095918591EF01F92F20
:10007000E82F05900D92A217B307D9F7FE0104C02F
:100080001D92A217B307E1F7E534F40731F703D067
:0600900000C0F894FFCF50
:10009600C3D26894DD24D1F8C0E0DAE00F2EF0EA8E
:1000A600EF2EFF24F394F02DCC24C39402E01FE33B
:1000B6000F2EFEEFBF2EF02D8091163F8130D9F521
:1000C6008091173F8130B9F582B180788093123FD5
:1000D6001092173F9091143F8091123F981325C0BC
:1000E6008091133F81508093133F8091133F81117C
:1000F60022C08091123F811110C00398E8A6F9A68C
:10010600C092183FF801C08282818F5F8E3F10F443
:10011600828308C0F801B28205C088818E7F8883F9
:100126001092193F1092163F06C08091123F80939D
:10013600143FD092133F8091183F813071F4809123
:10014600173F813051F4039A88818E7F88831092FD
:10015600183F1092173F1092193F8091053F811169
:10016600ABCF8091193F8111A7CF49E168ED81E6B8
:0801760090E048D28895A0CF6B
:10017E001F920F920FB60F9211242F933F934F930E
:10018E005F936F937F938F939F93AF93BF93EF93F1
:10019E00FF931F9B23C08091163F81111DC080913C
:1001AE00183F811119C082B180788093143F91E07D
:1001BE009093163F82E08093133F1092173FE0E03A
:1001CE00FAE020EA31E020A731A710A211A2808127
:1001DE00816080839093193F80E883B91E9B07C08E
:1001EE00169B02C0D8D101C0DCD180E483B9FF9147
:1001FE00EF91BF91AF919F918F917F916F915F9191
:10020E004F913F912F910F900FBE0F901F90189509
:10021E00CF93DF9369D184E080931004809311040F
:10022E0080931204C3E1D4E08883809314048093F6
:10023E001504A6E1B4E08C93E7E1F4E080830B981B
:10024E00039A8881877F888388818F7788838881C6
:10025E00887F846088830E9806988C91877F8C9314
:10026E008C918F778C938C91887F81608C930F9873
:10027E0007988081877F808380818F7780838081BC
:10028E00887F8160808380EC83B921D1AED1B9D0D3
:10029E000BD1169B86D1E2E0FFE381E080831282D0
:0C02AE006CD164D1AFD1DF91CF910895E5
:1002BA0080911B0883FF02C04BD1089580911B08CF
:1002CA0082FF02C04DD1089580911B0886FF09C0A4
:1002DA0080911B0880FF05C02BD181E08093153FD8
:1002EA00089580911B088823BCF480911B0881FF24
:1002FA0011C080911B0884FF04C08091153F882398
:10030A0039F01092153F04D183E080931A080895BA
:10031A00F7D0089505D1089580911B0886FF08C07B
:10032A0080911B0880FD04C00BD182E080931A08DB
:02033A00089524
:10033C001F920F920FB60F9211242F933F934F934E
:10034C005F936F937F938F939F93AF93BF93EF9331
:10035C00FF9347E068ED81E690E051D1A8DFFF9173
:10036C00EF91BF91AF919F918F917F916F915F9121
:10037C004F913F912F910F900FBE0F901F9018959A
:10038C008091003F813049F028F0823051F0843068
:10039C0061F016C085E0F9D008958091023FF5D048
:1003AC0008958091043FF1D008951092033F179B5C
:1003BC0003C080E88093033F8091033FE6D008950B
:0603CC008AEAE3D0089567
:1003D200E0E1F8E08CE2848781EE81871092083FA9
:1003E2001092093F10920A3F10920B3F10920C3F5D
:1003F20010920D3F1092063F1092073F1092103F4D
:0E0402001092113F10920E3F10920F3F08957E
:100410000A980298E2E1F4E08081877F80838081FE
:100420008F7780838081887F846080830998019A98
:10043000E1E1F4E08081877F808380818F77808312
:0C0440008081887F84608083C4DF089581
:10044C00E5D08093013F8091003F882379F0809123
:10045C00003F813079F48091013F813059F4179B32
:10046C0009C0E2E0FFE31082128204C08091013FD8
:08047C008093003FC0D00895F9
:100484001F920F920FB60F9211248F93EF93FF9345
:10049400E0E0FAE010A211A281E08093173F80E12E
:1004A4008387FF91EF918F910F900FBE0F901F9054
:0204B400189599
:1004B60086EC91E08AD086E292E08CD083EE92E0E0
:1004C6008ED08EED92E090D06AD01092053F1092B9
:0604D600003F81E00895E3
:1004DC00E0E0FAE080EA91E080A791A780E18183D7
:0A04EC00828784E0808380E0089599
:1004F600E0E1F4E0808188608193E83184E0F807E8
:04050600C9F7089594
:10050A00E0E1F8E08385806C838782E08287089542
:10051A00E0910A3FF0910B3F309709F00995089551
:10052A00E091083FF091093F309709F00995089545
:10053A00E0910C3FF0910D3F309709F0099508952D
:10054A00E091063FF091073F309709F00995089529
:10055A00E091103FF091113F309709F00995089505
:10056A00E0910E3FF0910F3F309709F009950895F9
:0E057A0042E068ED80E890E043D080E0089514
:0E05880049E168ED81E690E03CD080E0089506
:0E059600E0E1F8E08587828583608287089522
:0C05A400E0E1F8E0818581608187089526
:0C05B000E0E1F8E081858E7F81870895EE
:0A05BC001092053F1092003F0895D1
:0A05C60028D08093053F1AD0089555
:0A05D00080930A3F90930B3F0895BB
:0A05DA008093083F9093093F0895B5
:0A05E40080930C3F90930D3F0895A3
:0A05EE008093063F9093073F0895A5
:0A05F80085E08093500080E0089534
:0806020083E080931A080895BB
:08060A00FC0164BF4083089568
:06061200789480E00895D9
:0606180080911D08089509
:04061E00FFDD08955F
:02062200EECC1C
:0106240001D4
:02000004008278
:09000000001A010000C407000011
:00000001FF
