:100000001FC00CC30BC3B8C009C308C307C306C3D2
:1000100005C304C334C202C301C300C3FFC2FEC28E
:10002000FDC2FCC2FBC287C1F9C2F8C2F7C2F6C268
:10003000F5C2F4C23F003F19803F193F1A00061E67
:1000400011241FBECFEFCDBFDFE3DEBFE4E3F0E05E
:1000500040E017C0B591A59135912591059107FD17
:100060000CC095918591EF01F92FE82F05900D9225
:10007000A217B307D9F7FE0104C01D92A217B30758
:10008000E1F7E034F40731F703D000C0F894FFCF74
:10009000C3D26894DD24D1F8C0E0DAE00F2EF0EA94
:1000A000EF2EFF24F394F02DCC24C39400E01FE343
:1000B0000F2EFEEFBF2EF02D8091153F8130D9F528
:1000C0008091163F8130B9F582B180788093033FEB
:1000D0001092163F9091053F8091033F981325C0E1
:1000E0008091043F81508093043F8091043F8111AF
:1000F00022C08091033F811110C00398E8A6F9A6A1
:10010000C092173FF801C08282818F5F8E3F10F44A
:10011000828308C0F801B28205C088818E7F8883FF
:100120001092183F1092153F06C08091033F8093B4
:10013000053FD092043F8091173F813071F4809148
:10014000163F813051F4039A88818E7F8883109204
:10015000173F1092163F1092183F8091083F81116F
:10016000ABCF8091183F8111A7CF49E168ED81E6BF
:0801700090E048D28895A0CF71
:100178001F920F920FB60F9211242F933F934F9314
:100188005F936F937F938F939F93AF93BF93EF93F7
:10019800FF931F9B23C08091153F81111DC0809143
:1001A800173F811119C082B180788093053F91E093
:1001B8009093153F82E08093043F1092163FE0E051
:1001C800FAE020EA31E020A731A710A211A280812D
:1001D800816080839093183F80E883B91E9B07C095
:1001E800169B02C0D8D101C0DCD180E483B9FF914D
:1001F800EF91BF91AF919F918F917F916F915F9197
:100208004F913F912F910F900FBE0F901F9018950F
:10021800CF93DF9369D184E0809310048093110415
:1002280080931204C3E1D4E08883809314048093FC
:100238001504A6E1B4E08C93E7E1F4E080830B9821
:10024800039A8881877F888388818F7788838881CC
:10025800887F846088830E9806988C91877F8C931A
:100268008C918F778C938C91887F81608C930F9879
:1002780007988081877F808380818F7780838081C2
:10028800887F8160808380EC83B921D1AED1B9D0D9
:100298000BD1169B86D1E0E0FFE381E080831282D8
:0C02A8006CD164D1AFD1DF91CF910895EB
:1002B40080911B0883FF02C04BD1089580911B08D5
:1002C40082FF02C04DD1089580911B0886FF09C0AA
:1002D40080911B0880FF05C02BD181E08093193FDA
:1002E400089580911B088823BCF480911B0881FF2A
:1002F40011C080911B0884FF04C08091193F88239A
:1003040039F01092193F04D183E080931A080895BC
:10031400F7D0089505D1089580911B0886FF08C081
:1003240080911B0880FD04C00BD182E080931A08E1
:0203340008952A
:100336001F920F920FB60F9211242F933F934F9354
:100346005F936F937F938F939F93AF93BF93EF9337
:10035600FF9347E068ED81E690E051D1A8DFFF9179
:10036600EF91BF91AF919F918F917F916F915F9127
:100376004F913F912F910F900FBE0F901F901895A0
:100386008091063F813049F028F0823051F0843068
:1003960061F016C085E0F9D008958091003FF5D050
:1003A60008958091023FF1D008951092013F179B66
:1003B60003C080E88093013F8091013FE6D0089515
:0603C6008AEAE3D008956D
:1003CC00E0E1F8E08CE2848781EE818710920B3FAC
:1003DC0010920C3F10920D3F10920E3F10920F3F57
:1003EC001092103F1092093F10920A3F1092133F47
:0E03FC001092143F1092113F1092123F08957C
:10040A000A980298E2E1F4E08081877F8083808104
:10041A008F7780838081887F846080830998019A9E
:10042A00E1E1F4E08081877F808380818F77808318
:0C043A008081887F84608083C4DF089587
:10044600E5D08093073F8091063F882379F080911D
:10045600063F813079F48091073F813059F4179B2C
:1004660009C0E0E0FFE31082128204C08091073FDA
:080476008093063FC0D00895F9
:10047E001F920F920FB60F9211248F93EF93FF934B
:10048E00E0E0FAE010A211A281E08093163F80E135
:10049E008387FF91EF918F910F900FBE0F901F905A
:0204AE0018959F
:1004B00083EC91E08AD083E292E08CD080EE92E0EF
:1004C0008ED08BED92E090D06AD01092083F1092BF
:0604D000063F81E00895E3
:1004D600E0E0FAE080EA91E080A791A780E18183DD
:0A04E600828784E0808380E008959F
:1004F000E0E1F4E0808188608193E83184E0F807EE
:04050000C9F708959A
:10050400E0E1F8E08385806C838782E08287089548
:10051400E0910D3FF0910E3F309709F00995089551
:10052400E0910B3FF0910C3F309709F00995089545
:10053400E0910F3FF091103F309709F0099508952D
:10054400E091093FF0910A3F309709F00995089529
:10055400E091133FF091143F309709F00995089505
:10056400E091113FF091123F309709F009950895F9
:0E05740042E068ED80E890E043D080E008951A
:0E05820049E168ED81E690E03CD080E008950C
:0E059000E0E1F8E08587828583608287089528
:0C059E00E0E1F8E081858160818708952C
:0C05AA00E0E1F8E081858E7F81870895F4
:0A05B6001092083F1092063F0895CE
:0A05C00028D08093083F1AD0089558
:0A05CA0080930D3F90930E3F0895BB
:0A05D40080930B3F90930C3F0895B5
:0A05DE0080930F3F9093103F0895A3
:0A05E8008093093F90930A3F0895A5
:0A05F20085E08093500080E008953A
:0805FC0083E080931A080895C2
:08060400FC0164BF408308956E
:06060C00789480E00895DF
:0606120080911D0808950F
:04061800FFDD089565
:02061C00F1CC1F
:01061E0001DA
:00000001FF
